:1000000079007A00758910759000C2B0D2B1C2A093
:10001000758DFA758B25D2A0D28E308FFDC2A0C20D
:100020008FC28E80007400D2B01151C2B030B1FDC9
:10003000758DFF758B8CD28E308FFDC28EC28F0472
:1000400020B1EDB9000ABA0007B40F0040345026C1
:100050002200000000000000000000227C027DC899
:100060007EC8DEFEDDFADCF6227C037DB47EC8DECF
:10007000FEDDFADCF622D290C291D292C293115CDC
:10008000808EC290C291C292C293758DFE758B0D07
:10009000D2A0D28E308FFDC2A0C28FC28E3118790D
:1000A000011125F989F07900758DF6758BA1D2A023
:1000B000D28E308FFDC2A0C28FC28E31187A01114C
:1000C00025B5F000402A5000758DFA758B25D2A019
:1000D000D28E308FFDC2A0C28FC28E3118C292D292
:1000E00093D290C2911169759000115C115C01105E
:1000F000758DFA758B25D2A0D28E308FFDC2A0C22D
:100100008FC28E3118C290D291D292C2931169756A
:100110009000115C115C01107C327B647A64DAFE21
:05012000DBFADCF62211
:00000001FF
